:03000000020006F5
:03005F0002000399
:0300030002006296
:100062002403740A79143940000037351EB41E0087
:10007200009401741E7A0A9A952C741E040522A318
:10008200791409741E1415227B141B740575F0046F
:10009200A4740A75F00284741E75F00255F0541EA1
:1000A200790357541459531E21521E741E75F002BF
:1000B20045F0441E790347441449431E21421E74ED
:1000C2001E75F00265F0641E790367641469631E8D
:1000D20021621E7441332303137441C49023289375
:1000E200742F75F01925F0D401EC0011EF00120005
:1000F200F3007401790139500000202D0100001035
:100102002D0100007400600000740170000073741F
:1001120037B4010000B96300007903D900009000F0
:100122001E9383E3E0F3F0C003D003741E7932C957
:10013200C521C7D7741E341EC3C201D3D23FB3B286
:100142003F8201B0167202A016A2019201D2937BE5
:07015200FFDBFEC293322225
:06003500E478FFF6D8FD9F
:100013007900E94400601B7A0090015D780175A0C6
:1000230000E493F2A308B8000205A0D9F4DAF2754C
:02003300A0FF2C
:10003B007800E84400600A790175A000E4F309D860
:10004B00FC7800E84400600C7900900001E4F0A318
:04005B00D8FCD9FAFA
:0D000600758107120159E5826003020003B5
:040159007582002289
:00000001FF
