:03000000020006F5
:03005F0002000399
:0300030002006296
:100062007E007F0090A00074C7F090A001E4F090A1
:10007200A0027480F090A0037420F090A004749009
:10008200F090A004E0FD20E1F890A0037466F090E7
:10009200A0047410F090A004E0FD20E1F890A00309
:1000A2007412F090A0047410F090A004E0FD20E11E
:1000B200F890A0037434F090A0047410F090A0049F
:1000C200E0FD20E1F890A0037456F090A0047410B3
:1000D200F090A004E0FD20E1F890A0037478F09085
:1000E200A0047450F090A004E0FD20E1F890A00379
:1000F2007420F090A0047490F090A004E0FD20E140
:10010200F890A0037466F090A0047450F090A004DC
:10011200E0FD20E1F890A0037421F090A00403F028
:1001220090A004E0FD20E1F890A0047420F090A0DB
:1001320004E0FD20E1F890A003E0FDBD120280047E
:100142007E017F0090A0047420F090A004E0FD20C6
:10015200E1F890A003E0FDBD340280050EBE00016F
:100162000F90A0047420F090A004E0FD20E1F8902C
:10017200A003E0FDBD560280050EBE00010F90A057
:10018200047468F090A004E0FD20E1F890A003E080
:10019200FDBD780280050EBE00010FEE4F600775AF
:0E01A200A0558EB0800675A0AA75B0AA80FE8A
:06003500E478FFF6D8FD9F
:100013007900E94400601B7A009001B4780175A06F
:1000230000E493F2A308B8000205A0D9F4DAF2754C
:02003300A0FF2C
:10003B007800E84400600A790175A000E4F309D860
:10004B00FC7800E84400600C7900900001E4F0A318
:04005B00D8FCD9FAFA
:0D0006007581081201B0E58260030200035D
:0401B0007582002232
:00000001FF
