:03000000020006F5
:03005F0002000399
:0300030002006296
:100062009090007407F0909002E4F0909003F0906A
:100072009004E0FF20E1F8909006E0FF909005F0F8
:0200820080ED0F
:06003500E478FFF6D8FD9F
:100013007900E94400601B7A00900088780175A09C
:1000230000E493F2A308B8000205A0D9F4DAF2754C
:02003300A0FF2C
:10003B007800E84400600A790175A000E4F309D860
:10004B00FC7800E84400600C7900900001E4F0A318
:04005B00D8FCD9FAFA
:0D000600758108120084E58260030200038A
:04008400758200225F
:00000001FF
